:100183001201A212000E1201BD750E00750F057546
:0F0193000C00750D05C2A0C2A1C2A2C2A380FEBE
:0300230002002EAA
:10002E00C0E0C0F0C083C082C0D075D000C000C098
:10003E0001C002C003C004C005C006C0072098035B
:10004E000200FEAF99120003E5997008C2A0C2A18A
:10005E00C2A2C2A3E599B40108D2A1D2A3C2A0C282
:10006E00A2E599B40208C2A1C2A3D2A0D2A2E59978
:10007E00B40308C2A0C2A3D2A1D2A2E599B40408C7
:10008E00D2A0D2A3C2A1C2A2E599B4051DD3E50D9B
:10009E009414E50C648094805010050DE50D7002EB
:1000AE00050C050FE50F7002050EE599B4061DC38C
:1000BE00E50D9401E50C648094804010E50D150D5E
:1000CE007002150CE50F150F7002150EE599B407A9
:1000DE000C750E00750F05750C00750D05E599B4C0
:1000EE00080C750E00750F14750C00750D14C29862
:1000FE00D007D006D005D004D003D002D001D00056
:0B010E00D0D0D082D083D0F0D0E032FF
:03000B00020119D6
:04011900C0E0C0D0B2
:10011D00758A66758CFC0509E50970020508C3949E
:10012D0014E50894004006750800750900D3E5092B
:0E013D00950DE508950C5004D2A48002C2A4D2
:05014B00D0D0D0E0322D
:03002B000201507F
:04015000C0E0C0D07B
:10015400C2CF050BE50B7002050AC39414E50A949B
:10016400004006750A00750B00D3E50B950FE50AF0
:0A017400950E5004D2A58002C2A52A
:05017E00D0D0D0E032FA
:10000E005389F0438901758A66758CFCC28DD28C3A
:05001E00D2A9D2AF22BF
:1001D50053890F438910758B66758DFCC28FD28E3E
:0501E500D2ABD2AF22F5
:1001BD00E4F5C9F5C875CC6675CDFC75CA6675CB09
:0801CD00FCD2CAD2ADD2AF2270
:1001A20053877F75985053890F438920758BFD754E
:0B01B2008DFDC2ABD28ED2AFD2AC22CA
:080003008F993099FDC299228A
:030000000201EA10
:0C01EA00787FE4F6D8FD758111020183D6
:00000001FF
