:10000E00758901758CFF758AF7D2AFD2A9D28CD2C1
:10001E00A2D2A0C2A3C2A130A70D30A60AC2A2C20C
:10002E00A0D2A3D2A180F030A70FA2A6B3500AC2CD
:10003E00A2C2A3C2A0D2A180DEA2A7B3500D30A649
:10004E000AC2A2C2A1C2A0D2A380CCC2A3C2A2C223
:05005E00A1C2A080C258
:03000B000200638D
:10006300C0E0C0D0C28C758CFF758AF7D28C0509AD
:10007300E50970020508C39464E508648094804030
:1000830006750800750900D3E5099414E508648032
:1000930094805006D2A5D2A48004C2A5C2A4D0D015
:0300A300D0E03278
:030000000200A655
:0C00A600787FE4F6D8FD75810902000E99
:00000001FF
