:08027D007F027EC7DEFEDFFCFC
:010285002256
:10000E00120241758CFF758AF7D2AFD2A9D28CC27B
:10001E00A0751200751315751400751506750C0074
:10002E00750D25750800750906750E00750F14758A
:10003E000A00750B06E4F510F5113098FDE599B43C
:10004E00E13AD3E5139509E5086480F8E51264807A
:10005E00984008E513151370021512C3E515950F98
:10006E00E50E6480F8E51464809850080515E515D2
:10007E0070020514AF991200030201DBE599B4E298
:10008E0025851212851313C3E515950FE50E6480B1
:10009E00F8E51464809840030201DB0515E5157040
:1000AE003F05140201DBE599B4E338C3E513950D62
:1000BE00E50C6480F8E51264809850080513E5138A
:1000CE0070020512C3E515950FE50E6480F8E51470
:1000DE0064809840030201DB0515E51570020514D6
:1000EE000201DBE599B4E41BD3E5139509E5086439
:1000FE0080F8E5126480984035E5131513700215EB
:10010E0012802BE599B4E508851212851313801E13
:10011E00E599B4E622C3E513950DE50C6480F8E588
:10012E001264809850080513E513700205128514A9
:10013E00148515150201DBE599B4E734D3E5139563
:10014E0009E5086480F8E5126480984008E5131507
:10015E001370021512D3E515950BE50A6480F8E5C8
:10016E00146480984067E515151570021514805DAE
:10017E00E599B4E821851212851313D3E515950B75
:10018E00E50A6480F8E5146480984041E51515157C
:10019E00703B15148037E599B4E932C3E513950D1C
:1001AE00E50C6480F8E51264809850080513E51399
:1001BE0070020512D3E515950BE50A6480F8E51477
:1001CE006480984008E515151570021514C2980242
:0201DE000048D7
:03000B000201E00F
:1001E000C0E0C0D075D000C000C28C758CFF758A8D
:1001F000F7D28C0511E51170020510C3942CE5109F
:10020000648094814006751000751100D3E5119546
:1002100013E5126480F8E5106480985004D2A4803D
:1002200002C2A4D3E5119515E5146480F8E51064C5
:1002300080985004D2A58002C2A5D000D0D0D0E0D2
:01024000328B
:10025C00EF1FAC0670011E4C600A7D027CEFDCFEC9
:04026C00DDFC80EC49
:01027000226B
:1002410075985043878053890F438920758BF375C7
:0B0251008DF3C2ABD28ED2AFD2AC2234
:080003008F993099FDC299228A
:0300000002027188
:0C027100787FE4F6D8FD75811502000EC0
:00000001FF
